S00F000054656368656D5F322E733337FE
S3150800000000100020590C0008570C0008570C00086F
S31508000010570C0008570C0008570C0008570C000826
S31508000020570C0008570C0008570C0008570C000816
S31508000030570C0008570C0008DF510008570C000839
S31508000040570C0008570C0008570C0008570C0008F6
S31508000050570C0008570C0008570C0008570C0008E6
S31508000060570C0008570C0008570C0008570C0008D6
S31508000070570C0008570C0008570C0008570C0008C6
S31508000080570C0008570C000819090008570C0008F7
S31508000090570C0008570C000811110008570C0008E7
S315080000A0570C0008570C00083912000815120008EA
S315080000B0570C0008570C0008570C0008570C000886
S315080000C0570C0008570C0008570C0008570C000876
S315080000D0570C0008570C0008570C0008570C000866
S315080000E0570C0008570C0008570C0008570C000856
S315080000F0570C0008C5580008570C0008570C00088C
S31508000100570C0008570C0008570C0008570C000835
S31508000110570C0008570C0008570C0008570C000825
S31508000120570C0008570C0008570C0008570C000815
S31508000130570C0008570C0008570C0008570C000805
S31508000140570C0008570C0008570C0008570C0008F5
S31508000150570C0008570C000867610008570C000880
S31508000160570C0008570C0008570C0008570C0008D5
S3150800017010B5054C237833B9044B13B1044800E095
S3150800018000BF0123237010BD0812002000000000E4
S31508000190186C000808B5034B1BB10349034800E077
S315080001A000BF08BD000000000C120020186C0008F3
S315080001B0A3F5803A704700BF174B002B08BF134BB7
S315080001C09D46FFF7F5FF00218B460F461348144A54
S315080001D0121A06F0BDF90E4B002B00D098470D4BAE
S315080001E0002B00D098470020002104000D000D4880
S315080001F0002802D00C4800E000BF06F085F9200070
S31508000200290000F05FFC06F06BF900BF000008004B
S315080002100000000000000000001000200812002066
S31508000220584700200000000000000000014B186835
S31508000230704700BF24120020014B1868704700BFA2
S3150800024028120020014B1868704700BF2C120020A6
S3150800025010B1024805F096BD704700BFDC1A0020B1
S31508000260BFB500244FF40072254B2649C3F8A020D9
S31508000270CDE900442346244A0968244805F0E9FDE7
S31508000280234B02AD2246186022492B46224804F029
S31508000290C7F922462B462149214804F0C1F91E4FC9
S315080002A0204C00224FF484734FF0FF3138460195F5
S315080002B0009204F0FFF99DF808302060002BF0D179
S315080002C0830744BF4FF48072174B184E48BFC3F8D4
S315080002D0A02010F0604F02D0316800F003F944F610
S315080002E0707223681A4206D0002000F0B3F8002185
S315080002F0226800F063F83168206800F04BF9D0E70F
S3150800030000E00340F81A002051020008DC1A002019
S31508000310FC1A00207C650008301200208965000858
S3150800032040120020D41A002000F00340D81A0020FA
S3150800033010B58EB002F0DAFE04460121022005F05F
S315080003400BFB204602F0D6FE00F07CFB00F08AFB91
S315080003500AAB0222089300234FF40071CDE9063256
S315080003603322CDE902210A4ACDE9043301920B2250
S31508000370084900920848094A04F066FC9DF82830A6
S315080003801BB18C21064801F089FB0EB010BD00BFD9
S315080003905012002096650008501A002061020008D5
S315080003A0A265000800F0A0BF704770474FF480723E
S315080003B0014BC3F8A020704700F00340022810B58F
S315080003C0144625D121BB1AB3D30701D5FFF7EEFF93
S315080003D0E00601D5FFF7EAFFA10601D5FFF7E6FF1C
S315080003E0620601D5FFF7E2FFE30501D5FFF7DEFF59
S315080003F0A00501D5FFF7DAFF610501D5FFF7D6FF9E
S31508000400A20401D5FFF7D2FF630401D5FFF7CEFF9B
S31508000410012010BD002208B5044B1B201A7000F0FD
S31508000420DDFA0122024B1A7008BD00BF021B00202C
S31508000430031B0020002208B5044B1B201A7000F08D
S31508000440CDFA0322024B1A7008BD00BF021B00201A
S31508000450031B0020014B1878704700BF041B0020BF
S31508000460052000F0D1BA012208B51146052000F092
S315080004709DFA4FF4B4720121062000F097FA122271
S315080004800121082000F092FA01220920114600F005
S315080004908DFA052201210A2000F088FA122201218C
S315080004A00B2000F083FA4EF6404201210D2000F0A1
S315080004B07DFA0E204EF64042012100F077FABDE89B
S315080004C00840022000F08ABA044B032804BF1978B2
S315080004D0034A187008BF1170704700BF041B00203C
S315080004E0051B0020F8B5274D04462E7816B1012EB7
S315080004F01ED0F8BD820009D5234F3B78022B0BD1BD
S31508000500224B1E70FFF7ACFF01232B70002CF0DA8C
S3150800051005221D4B1A70ECE7032B03D11C4B1878E8
S31508000520FFF7D2FF3B78012B04BF00233B70E9E7B6
S315080005304300DED50023144C2B7025785DB92A4676
S3150800054029462846FFF73AFFB8B1022323700F4B16
S315080005501D70FFF788FF2078022807D100220B4B71
S3150800056011461A70FFF72AFFFFF77DFF2378042B41
S31508000570BFD1BDE8F840FFF773BF2670FFF770FFDD
S31508000580E9E700BF00100020041B0020031B002021
S31508000590051B0020F8B58F4F04463E78032E00F061
S315080005A09281052E00F0A281022E56D18A4D2B7813
S315080005B00A2B52D8DFE813F00B00520073008800AC
S315080005C0B400D5001E014801510051007E01820287
S315080005D013D5FFF731FE95288CBF022201227F4BE7
S315080005E01A70FFF717FFFFF72DFE95288CBF02221A
S315080005F001227B4B1A70FFF71DFF23020BD5FFF76D
S3150800060015FE952888BF03260022764B1E70764B6A
S315080006101A7005232B70A60107D51B2000F0DEF9FA
S315080006200022714B1A7007232B70E00015D56F4C0A
S315080006302378062B0AD16E4E002231783878FFF7D8
S31508000640BDFE002231783878FFF7B8FE2378052BEF
S3150800065003D1FFF705FF0A232B70F8BD010306D562
S31508000660FFF7EAFD952882BF02225C4B1A70E20268
S3150800067041BF0023594A2B701370E300EDD5574B41
S315080006801B78022BE9D0584B19780029E5D10122AD
S315080006901B201A70572200F089F90223DCE70703AA
S315080006A008D5FFF7C9FD952804D902224B4B1A70C5
S315080006B001232B70E60241BF0023484A2B701370B2
S315080006C02401CAD50123C7E7200308D5FFF7B4FDDF
S315080006D0952898BF0126414B1E70FFF79BFEA10285
S315080006E006D5FFF7AFFD952882BF02223C4B1A704C
S315080006F0620241BF00233A4A2B701370E300ACD55F
S31508000700374B1B78022BA8D0374B19780029A4D170
S3150800071001221B201A70572200F048F904239BE790
S31508000720070308D5FFF788FD952898BF01262B4BA8
S315080007301E70FFF76FFEA00208D5FFF783FD952808
S3150800074004D90222264B1A7003232B70610241BF7B
S315080007500023234A2B70137022017FF57EAF0323F3
S315080007607AE7030309D5FFF767FD95288CBF0222B0
S3150800077001221A4B1A70FFF74DFEA70208D5FFF79C
S3150800078061FD952898BF0126154B1E70FFF752FE8E
S31508000790200207D5FFF74AFD95288CBF03220222BF
S315080007A0104B1A70E1000ED50E4B1B78032B0AD09E
S315080007B00D4B197839B901221B201A70572200F0FF
S315080007C0F5F806232B70E2017FF547AF0023054AAB
S315080007D0137041E7041B0020031B0020011B0020A7
S315080007E0001B0020061B0020021B0020071B002000
S315080007F000100020030309D5FFF71EFD95288CBFBE
S31508000800022201223E4B1A70FFF704FEA70208D502
S31508000810FFF718FD952898BF01263A4B1E70FFF77B
S3150800082009FE20020CD5FFF701FD952888BF032293
S31508000830354B93BF02221A7005231A7088BF2B7096
S315080008402101C0D50523BDE7020309D5FFF7F4FC4E
S3150800085095288CBF02220122294B1A70FFF7DAFD70
S31508000860A30209D5FFF7EEFC95288CBF02220122C8
S31508000870244B1A70FFF7DEFD27020BD5FFF7D6FCCF
S31508000880952888BF032600221F4B1E701F4B1A701F
S3150800089005232B70E0007FF5E0AE1C4B1978002984
S315080008A07FF4DBAE01221B201A705722BDE8F84000
S315080008B000F07CB8010144BF00232B70C2007FF50D
S315080008C0CCAE0023C8E6FFF7CBFD23017FF5C5AE06
S315080008D00F4C2378022B04D1FFF7C5FD00220D4BE0
S315080008E01A702078BDE8F840FFF7EEBD002000F04A
S315080008F08BF8002001F01EF9BDE8F84000F0F4BCC2
S31508000900011B0020001B0020061B0020021B0020E4
S31508000910051B0020031B00207FB502F0EEFB00221A
S315080009200546114601261B4B187858B15C684CB130
S31508000930013C5C6034B906FA02F00143587838B3D2
S31508000940986858600132222A03F10C03ECD1B1B140
S315080009506B460022104804F02BF89DF8003043B18E
S3150800096001238DF800300D4B01936B2302930C4B3A
S31508000970039300226B4611460A4804F019F802222E
S315080009802846094B5A6104B0BDE8704002F0BBBB6B
S315080009901870D7E7081B002030120020AF65000842
S315080009A0D465000840120020006006407FB5044662
S315080009B068460E46154603F0EFFA0C206043064AD1
S315080009C01318C3E901555E7001231354684603F0F2
S315080009D01FFB04B070BD00BF081B00201FB50446EE
S315080009E0684603F0D9FA0C200022604305490B1823
S315080009F05C680A545A60684603F00AFB204604B04D
S31508000A0010BD00BF081B00201FB50446684603F04A
S31508000A10C3FA0C220A4B204602FB0433002219466D
S31508000A20212803F10C0304D9684603F0F1FA04B04F
S31508000A3010BD013003F80C2CC0B24A60F0E700BFC5
S31508000A40081B002010B5012304220821022003F008
S31508000A50DDF8BDE81040012304220921022003F035
S31508000A60D5B800001FB509214FF4F06002F04EF822
S31508000A7001213D2001F092FB0F4A01AB07CA012470
S31508000A8083E807008022184602928DF80C4001F090
S31508000A9011F801F087F84FF40071002001F06CF8A6
S31508000AA00222064B20469A614FF48022044B1A60B4
S31508000AB001F040F804B010BDC865000800500640B3
S31508000AC000E100E008B505F06BFBFFF731FC05F027
S31508000AD074FB002008BD704708B50321802002F08A
S31508000AE015F803214FF4806002F010F809214FF43D
S31508000AF0C06002F00BF809214FF4F06002F006F826
S31508000B0009213E2002F002F809212D2001F0FEFFFE
S31508000B100921512001F0FAFF002008BD4FF480306A
S31508000B202449254A4B6E10B55066486E4FF0004171
S31508000B304AF6CD345166214903F480334A6C0C6475
S31508000B4002F001024C6BE407FCD401241C494C60FA
S31508000B501A4C216BC907FCD51A49D1F8081689071A
S31508000B605EBF4FF480241649CC6512B1134A164964
S31508000B7011640028A2BF4FF00041144A51661BB900
S31508000B804FF48032114B5A6604F0E2FC00F05FF82D
S31508000B9004F062FC04F086FC04F0C0FCFFF79CFF3E
S31508000BA004F06EFC00F04AF803F082F9BDE8104044
S31508000BB003F080B9008000400090004000400940E2
S31508000BC00060094000C007403254FFFF00A0004003
S31508000BD003F08CB908B500F0F3FA00F00DF8BDE89B
S31508000BE0084000F019B808B500F026F8BDE8084036
S31508000BF005F08EB870477047014800F0F1B800BF9D
S31508000C00E865000818B1034B1860002070472520D6
S31508000C10704700BFDC1C002010B5054C054920684C
S31508000C2000F01CFE2068BDE81040FFF7EBBF00BFD0
S31508000C3030100020041000200F20704708B501214D
S31508000C403A2001F0ABFABDE80840FFF744BF01219E
S31508000C503A2001F0A3BAFEE708B500F013F8064BF0
S31508000C60064A07498B4201D3FFF7A6FA52F8040B46
S31508000C7043F8040BF6E700BF00100020206C0008BC
S31508000C8008120020044B054A9A60D3F8882042F4DB
S31508000C907002C3F88820704700ED00E000000008E5
S31508000CA0014B1868704700BF38110020084B1B6FAE
S31508000CB003F00703022B04D0032B05D0012B05D024
S31508000CC0FEE7044B18687047034BFBE70348704779
S31508000CD000800040381100203C110020002D310111
S31508000CE008B5FFF7E3FF054B1B6FC3F30333013367
S31508000CF0B0FBF3F0024B186008BD00BF008000404F
S31508000D00341100200048704700B4C404014B186829
S31508000D10704700BF3C110020054B1860054B1B6F40
S31508000D2003F00703032B01D1FFF7DABF704700BFB3
S31508000D303C110020008000400020704700487047A2
S31508000D40002D31014FF094439868C0F304400C28F5
S31508000D5022D8DFE800F009212121212107171921CE
S31508000D601B1D1F000F4870479B6803F04073B3F1C3
S31508000D70807F13D0B3F1007F12D00B4A002B08BF37
S31508000D801046704709487047094870470948704730
S31508000D900948704709487047002070470848704757
S31508000DA008487047405DC60000093D000024F4006D
S31508000DB0C0EA210180BA8C010048E801005A6202A3
S31508000DC080841E0040420F004FF4004070474FF4E5
S31508000DD07A707047014B1868704700BF40110020B1
S31508000DE0D0E900031847000038B50D460446B0B1EF
S31508000DF0012817D0022817D0032803D13F23EB4038
S31508000E00DB0704D44FF47F71094800F047FE302011
S31508000E1001214443074B01FA05F51D5138BD40F23F
S31508000E20FF13ECE77F23EAE740F2FF33E7E700BF6B
S31508000E300066000840E0034038B50D460446B0B1E8
S31508000E40012817D0022817D0032803D13F23EB40E7
S31508000E50DB0704D440F22B41094800F01FFE30207E
S31508000E6001214443074B01FA05F51D5138BD40F2EF
S31508000E70FF13ECE77F23EAE740F2FF33E7E700BF1B
S31508000E800066000840D0034010B5044601213A2008
S31508000E9001F084F9A3782078B3FA83F30422617801
S31508000EA05B0902F0B3FE002010BD034659789B7813
S31508000EB000780BB9FFF798BFFFF7BEBF034659780E
S31508000EC09B7800780BB9FFF7B7BFFFF78DBF000017
S31508000ED038B504784578ACB1012C16D0022C16D05A
S31508000EE0032C03D13F23EB40DB0704D440F24641F1
S31508000EF0084800F0D3FD302301225C43064BAA4084
S31508000F001A5138BD40F2FF13EDE77F23EBE740F2B5
S31508000F10FF33E8E70066000840F0034070B5047840
S31508000F2005464678F4B1012C1FD0022C1FD0032C9D
S31508000F3003D13F22F240D30704D440F216410D48AC
S31508000F4000F0ACFD30235C4303F18043103403F515
S31508000F507033E358F34003F00100AB780BB980F027
S31508000F60010070BD40F2FF12E4E77F22E2E740F29B
S31508000F70FF32DFE70066000838B5124B05461B78D6
S31508000F80DBB1E0B102F0B9F80F4A00231146147B31
S31508000F9054B92B6001251A0101EB03131D738C50FC
S31508000FA002F0B1F8204638BD0133082B02F11002D1
S31508000FB0EDD102F0A8F80548F5E70548F3E7054836
S31508000FC0F1E700BF601E0020E01C0020048000F04E
S31508000FD0028000F0018000F0154B13B51868002355
S31508000FE001908DF8043002F088F8124B1C7824B171
S31508000FF002F089F8104802B010BD01221A7002F0FA
S3150800100082F80E4B01A81C731C7783F82C4083F8D2
S315080010103C4083F84C4083F85C4083F86C4083F886
S315080010207C4008238DF8073002F062FE2046E2E78E
S3150800103066660008601E0020038000F0E01C0020A1
S315080010400A4A08B512785AB107280BD8084A02EB9B
S3150800105000131B7B43B1002102F028FE002008BDC7
S315080010600448FCE70448FAE70448F8E7601E00204D
S31508001070E01C0020028000F0018000F0078000F0EC
S315080010800A4A08B512785AB107280BD8084A02EB5B
S3150800109000131B7B43B1012102F008FE002008BDA6
S315080010A00448FCE70448FAE70448F8E7601E00200D
S315080010B0E01C0020028000F0018000F0078000F0AC
S315080010C00D4B1B7893B1072812D889B10B4B03EB4C
S315080010D000131B7B73B10A4BDA6A012303FA00F08B
S315080010E010401ABF00200B700870704705487047FB
S315080010F00548704705487047601E0020E01C002020
S3150800110000000440028000F0018000F0078000F033
S315080011102DE9F843174B1F6D5B6D1F4000D5FEE7A1
S3150800112001260025144CDFF85480DFF85490374226
S3150800113017D02368C8F850609BB1A16828460131CA
S315080011406268A1609847637B012B0AD148B909EB0D
S3150800115045131A7B60F341021A731A7F60F3410242
S315080011601A770135082D4FEA460604F11004DED138
S31508001170BDE8F88300000440E01C0020002004407D
S31508001180601D002070B5044601250C4E04B970BDDB
S3150800119094FAA4F3B3FA83F305FA03F206EB031100
S315080011A024EA02044A68002AF0D0D8B20B7B13B1AD
S315080011B089689047EAE79047E8E700BF641E002081
S315080011C008B51A2001F0BAFF28B14FF08062074B24
S315080011D0C3F880211A601B2001F0B0FF28B14FF038
S315080011E00062024BC3F880211A6008BD00E100E0E6
S315080011F038B505460C4601F080FF0022044B03EB88
S3150800120005135C601A73BDE8384001F07CBF00BF67
S31508001210641E0020074BD3F82404D3F8202403F5D2
S315080012200053104000F0553020F05020C3F8200439
S31508001230FFF7A8BF00C00340074BD3F82404D3F830
S31508001240202403F50053104000F0AA3020F0A02017
S31508001250C3F82004FFF796BF00C0034070B5451ECB
S31508001260EBB2032B044604D94FF4C971144800F0B5
S3150800127015FC144E33682BB9032D10D8DFE805F09A
S315080012800915191D204698470028F5D10446204619
S3150800129070BD0D4A136923F00403136130BF7368E8
S315080012A0002BF4D020469847F1E7002001F0A0FF74
S315080012B0F5E7002001F0B4FFF1E702F077F8EEE772
S315080012C06A6600086820002000ED00E0054B1A78E1
S315080012D02AB95B78002B0CBF032002207047012037
S315080012E0704700BF64200020F8B501F0FFFE0646EF
S315080012F0FFF7ECFF0238C3B2012B01D801F0A4FFB7
S3150800130000252C460D4FFFF7E1FF431EDBB2022BEB
S3150800131002D8FFF7A3FF0446BB6813B120469847D7
S315080013200546EB07EFD4A31EDBB2012B01D801F06B
S315080013308CFF304601F0DEFE2046F8BD682000200E
S3150800134038B141B1013AB2F5006F044838BF002000
S315080013507047034870470148704700BF037000F0A4
S31508001360027000F038B50D460446B0B1012817D012
S31508001370022817D0032803D13F23EB40DB0704D408
S315080013804FF47F71094800F089FB3020012144435E
S31508001390074B01FA05F51D5138BD40F2FF13ECE77E
S315080013A07F23EAE740F2FF33E7E700BF006600085D
S315080013B040E0034038B50D460446B0B1012817D0C1
S315080013C0022817D0032803D13F23EB40DB0704D4B8
S315080013D040F22B41094800F061FB302001214443CB
S315080013E0074B01FA05F51D5138BD40F2FF13ECE72E
S315080013F07F23EAE740F2FF33E7E700BF006600080D
S3150800140040D00340104930B50B78104A2BB9C2E9D1
S315080014100033C2E9023301230B700C4C002321462A
S3150800142051F8045B854208D00133042BF8D100211A
S3150800143054F8043B1BB942F82100002003E00131AF
S315080014400429F5D1024830BD8420002074200020EC
S31508001450027000F038B590F83530022B26D1447F5B
S3150800146090F82150D4B1012C1BD0022C1BD0032C90
S3150800147003D13F23EB40DB0704D440F2CD310C48BF
S3150800148000F00CFB30235C4303F18043143403F56E
S315080014907033E058E84000F0010038BD40F2FF1311
S315080014A0E8E77F23E6E740F2FF33E3E70020F4E7C7
S315080014B000660008002313B51D4A52F8044B94F839
S315080014C0211081420ED00133042BF6D102B010BD93
S315080014D00028FBD19DF80730002BF7D0A068FFF74E
S315080014E0AFFDF3E794F83530022BEFD12046FFF72E
S315080014F0B1FF637E2076022BE8D194F8323003F0F0
S31508001500FF02002BE2D1A0680DF107018DF8072034
S31508001510FFF7D6FD237E1BB194F83330002BD7D0C6
S315080015200023A06884F83330FFF7AAFDCEE700BF92
S315080015307420002010B50446FFF74EFD002104F183
S315080015400800FFF719FD014620B904F10C00FFF762
S3150800155013FD00B1004810BD0E7000F010B590F8EC
S315080015603630044683B9042203685A619A69920799
S31508001570FCD541F29872102123795B0103F180436F
S3150800158003F57033995010BD022BFCD10068836CAB
S31508001590DB074CBF0521062101F0AAFF2279034B80
S315080015A05201134410225A60EDE700BFC0D403402D
S315080015B01FB504460B46C07EE17F002B39D00123B8
S315080015C0042202F023FB0123022294F82010207F34
S315080015D002F01CFB94F83530022B19D100230122A6
S315080015E094F82110607F02F011FB0023042294F87E
S315080015F02210A07F02F00AFB012394F82120019310
S315080016001146607F009302F085FA002004B010BDF1
S31508001610032BFAD10023012294F82110607F02F0EF
S31508001620F5FA0023042294F82210A07F02F0EEFABD
S31508001630EBE71A46039302F0E9FA039B94F82010A5
S315080016401A46207F02F0E2FA94F83520039B022A14
S3150800165012D11A4694F82110607F02F0D7FA039B3C
S3150800166094F822101A46A07F02F0D0FA039B94F849
S31508001670212001930123C3E7032AC6D11A4694F809
S315080016802110607F039302F0C1FA039B1A46CAE74A
S31508001690F8B507460D461646FFF752FE002870D1E4
S315080016A0162001F065FD0446FA6A93889BB213B1C9
S315080016B097F83230E3B197F83630F3B93B689C694E
S315080016C004F002041CB93846FFF748FF002401233A
S315080016D087F8343097F83630FBB92E44B542386867
S315080016E016D183699A06FCD54CB300242046F8BD6A
S315080016F0002CDAD0FFF70CFDD6E7022B02D13B68A7
S315080017009C6CDDE740F638211F4800F0C7F9DAE798
S3150800171015F8011B02F036FBE0E7022BE4D12E4454
S31508001720B542386806D142F22003826C33EA0202D7
S31508001730FBD1D9E715F8011B01F014FFF0E797F87C
S3150800174036306BB942F2987210213B795B0103F18E
S31508001750804303F57033995008223B685A61C5E700
S31508001760022BC3D13868836CDB074CBF092121469D
S3150800177001F0BEFE3A79054B5201134410225A6015
S31508001780B4E70446B2E700BF9E660008C0E403401B
S3150800179010B5044680B190F832302BB9FFF75AFEDF
S315080017A010B9A068FFF74CFC002094F832300133DA
S315080017B0DBB284F8323010BD0048FCE7027000F056
S315080017C010B50446A0B190F832309BB190F832308B
S315080017D0012B05D1FFF73EFE10B9A068FFF750FCB4
S315080017E0002094F83230013BDBB284F8323010BD69
S315080017F00148FCE70148FAE7027000F0057000F0BE
S3150800180037B590F835500446022D12D1437E94F828
S315080018102210807F23B9FFF7A5FD002003B030BD55
S31508001820012B02D1FFF7C6FDF7E7237E002BF9D17E
S31508001830F1E7012DF1D1037E73B911238DF8073035
S31508001840FFF7A6FF2A4620460DF10701FFF720FFFE
S315080018502046FFF7B5FFE0E71323EFE72DE9F04150
S3150800186004468CB0824F04AE0D460FCF0FC697E8DC
S315080018700F0086E80F0010220021684604F068FE73
S31508001880002C00F0F38025B97A4E30460CB0BDE83E
S31508001890F0813C220021204604F05AFE2B6820469F
S315080018A02360022384F836302B7C2371FFF7AAFDC8
S315080018B006460028E9D12B7F6F4A84F835302B6815
S315080018C0934240F0A5805623A3846C4B23614FF4C2
S315080018D08013D5E90912636140F20113ADF80630A9
S315080018E0002384F83160A16284F830600B804B8055
S315080018F08B8084F83030E26213805380938084F8BA
S31508001900313084F8333002238DF81D30AB6801215D
S3150800191006936B8A3A20ADF82030AB8ACDF82CD0E6
S31508001920ADF81E30AB7D8DF81C30AB69099300F01D
S3150800193035FC0121A08C00F031FC2B79002B7CD0E2
S315080019400121362000F02AFC0A21A08C01F0DEF8DD
S3150800195010212B7C4A4F03F1260207EB42125160F5
S315080019602E7BA87B07EB431346EA0042C3F8DC2428
S31508001970697BEA7B41EA024CC3F8D4C4E676E07791
S31508001980217784F820206B7F01216377AB7F20467F
S3150800199084F82130EB7FA37795F8203084F822303D
S315080019A0FFF706FE064600287FF46FAF01F0A5FB99
S315080019B0297F8046032945D102202A7C02F1A60305
S315080019C007EB431307EB421741F2D042586095F8EC
S315080019D02000EB7F43EA0043BB50AA7F6B7F43EAB4
S315080019E0024341F2CC42BB508DF8001006238DF815
S315080019F010302B79286804A9002B34D001F088FF11
S31508001A002046FFF797FD0646404601F07CFB3CE77B
S31508001A101C4A934206D15723A3841B4B23614FF4D8
S31508001A20881356E7194A93427FF42EAF5823A384A6
S31508001A30174B23614FF490134BE7A08C562887D198
S31508001A40112183E70229D1D194F821001149FFF722
S31508001A50CFFBFFF7B5FB4FF4007320462383A6762A
S31508001A60FFF7CEFEC2E701F0A9FFC9E70A4E0CE769
S31508001A70F4660008037000F00000014B0100100036
S31508001A8000C0034000000A400100110000400A405F
S31508001A9001001200B5140008027000F0FEE700000D
S31508001AA0034B5A6812B19A6A002AFAD1704700BFE6
S31508001AB00040064038B5456804466B1EB3F5004F2E
S31508001AC003D341211748FFF7E9FFB5FA85F516490B
S31508001AD0C5F11F054B680BB1FFF7E2FF0122134B57
S31508001AE05A604B6813F00203FBD1227A0120002AC0
S31508001AF0627818BF022142EA0515627A08BF0021FA
S31508001B00002A18BF0223A27A0D43074913438D60A2
S31508001B104B62074B5860237813B1FFF7C1FFC860C3
S31508001B2038BD00BF14670008004006400060064044
S31508001B300050064008B50D4B5A6802B938B15B68C3
S31508001B400BB1FFF7ADFF18B10122094B5A6008BD6A
S31508001B50FFF7A6FF02230549CB60FFF7A1FF012285
S31508001B60044B5A604B689B07FCD4F0E700400640DC
S31508001B70005006400060064010B50C4620B140F201
S31508001B801B110648FFF78AFF054B9A6AD106FCD453
S31508001B901C639A6AD206FCD410BD00BF14670008FD
S31508001BA00040064008B5FFF77BFF02230449CB60D7
S31508001BB000230B62FFF774FF0123CB6008BD00BF4B
S31508001BC0004006404FF04023D3F88420D206FBD4C9
S31508001BD0D3F88400C0F381107047000038B5194B5C
S31508001BE00546D3F820310C4603F00703013B052BC5
S31508001BF020D8DFE803F0030B130F171BFFF750F885
S31508001C00052305B1286004B1237038BDFFF77EF8B7
S31508001C100323F6E7FFF796F80723F2E7FFF78EF8B0
S31508001C200223EEE7FFF73CF80623EAE7FFF76EF82C
S31508001C300423E6E7044840F6BE71FFF72FFF0023AA
S31508001C401846DEE7008000404567000838B5154BA2
S31508001C500546D3F828310C4603F00703013B032B4E
S31508001C6017D8DFE803F0020E120AFFF719F8052362
S31508001C7005B1286004B1237038BDFFF763F8072360
S31508001C80F6E7FFF743F80323F2E7FFF757F80223CF
S31508001C90EEE705484FF45D61FFF700FF002318469D
S31508001CA0E6E700BF0080004045670008F7B5002456
S31508001CB0154B0194D3F88051074605F00305022D0C
S31508001CC00E4614D0032D0DD0012D15D1214601A89D
S31508001CD0FFF784FF0F230FB1019A3A6006B13370FC
S31508001CE003B0F0BDFFF72EF807230190F3E7FFF7DF
S31508001CF025F82B460190EEE741F2E2010348FFF78B
S31508001D00CDFE2346E7E700BF008000404567000890
S31508001D1038B50F4B0546D3F890320C4603F003034B
S31508001D20012B09D0022B0BD1FFF70CF8072305B1BD
S31508001D30286004B1237038BDFFF700F80223F6E7E0
S31508001D40044840F6BB61FFF7A9FE00231846EEE7F4
S31508001D500080004045670008002337B50193184BFB
S31508001D600546D3F820320C4603F00703013B032B44
S31508001D701ED8DFE803F0020E1318002101A8FFF7AA
S31508001D8065FF11230DB1019A2A6004B1237003B0CF
S31508001D9030BDFEF7D7FF07230190F3E7FFF714F8E6
S31508001DA00A230190EEE7FFF715F809230190E9E702
S31508001DB040F69E510348FFF771FE0023E2E700BF95
S31508001DC0008000404567000838B5124B0546D3F831
S31508001DD040310C4603F00303022B0BD0032B0DD026
S31508001DE0012B0FD1FEF7F0FF0A2305B1286004B1D5
S31508001DF0237038BDFEF7EEFF0923F6E7FEF7E7FF87
S31508001E000B23F2E7044840F6EC71FFF747FE002380
S31508001E101846EAE70080004045670008002337B502
S31508001E200193184B0546D3F860320C4603F00703B6
S31508001E30013B032B1FD8DFE803F0020E191400211B
S31508001E4001A8FFF7CBFE0F230DB1019A2A6004B152
S31508001E50237003B030BD002101A8FFF7B5FF10239A
S31508001E60F2E7FEF76FFF07230190EDE7FEF766FF3F
S31508001E7002230190E8E740F633610348FFF70EFEB8
S31508001E800023E1E7008000404567000873B5002499
S31508001E900F4B0194D3F87032064603F00303012B67
S31508001EA00D4607D0022B11D040F691610948FFF77D
S31508001EB0F5FD04E0214601A8FFF786FF10240EB1C0
S31508001EC0019B336005B12C7002B070BD1424F6E78F
S31508001ED0008000404567000838B5154B0546D3F81D
S31508001EE000320C4603F00703013B032B18D8DFE842
S31508001EF003F0020A0E12FEF767FF0A2305B12860EF
S31508001F0004B1237038BDFEF765FF0923F6E7FEF72F
S31508001F105EFF0B23F2E7FEF7E3FE0E23800AEDE7EA
S31508001F20044841F29811FFF7B9FD00231846E5E782
S31508001F30008000404567000838B5154B0546D3F8BC
S31508001F4008320C4603F00703013B032B18D8DFE8D9
S31508001F5003F0020A0E12FEF737FF0A2305B12860BE
S31508001F6004B1237038BDFEF735FF0923F6E7FEF7FF
S31508001F702EFF0B23F2E7FEF7B3FE0E23800AEDE7EA
S31508001F80044841F2CC11FFF789FD00231846E5E71E
S31508001F90008000404567000838B5124B0546D3F85F
S31508001FA040320C4603F00303022B0BD0032B0DD053
S31508001FB0012B0FD1FEF708FF0A2305B1286004B1EB
S31508001FC0237038BDFEF706FF0923F6E7FEF7FFFE86
S31508001FD00B23F2E7044841F25B11FFF75FFD00238C
S31508001FE01846EAE7008000404567000838B5124BF6
S31508001FF00546D3F850320C4603F00303022B0FD0E4
S31508002000032B05D0012B0FD1FEF7DEFE0A2302E0D3
S31508002010FEF7DDFE0B2305B1286004B1237038BD39
S31508002020FEF7D8FE0923F6E7044840F6FF51FFF706
S3150800203035FD00231846EEE7008000404567000896
S3150800204038B5124B0546D3F860310C4603F0030346
S31508002050022B0BD0032B0DD0012B0FD1FEF7B4FEAC
S315080020600A2305B1286004B1237038BDFEF7B2FE15
S315080020700923F6E7FEF7ABFE0B23F2E7044841F225
S315080020801A01FFF70BFD00231846EAE70080004017
S315080020904567000870B5054614460E4601F026F851
S315080020A0296881EA040202EA06044C402C60BDE86D
S315080020B0704001F01FB80000B0F5207F10B534D08D
S315080020C009D8B0F5007F2AD003D898B1B0F5C07FFB
S315080020D010D0002421E0B0F5607FFAD1154BD3F873
S315080020E08030C3F301149B0617D5032C15D04FF483
S315080020F01D710FE00F4B1C6F230B13F00E0FC4F36B
S3150800210003340AD0032C08D0072C06D00F2C04D091
S315080021104FF419710848FFF7C1FC601C10BD054B48
S31508002120D3F89040C4F30464F7E7024B1C6FC4F37A
S315080021308024F2E700800040456700084FF48032AB
S315080021400F4B70B59A66064600200D46FFF7B4FF9A
S3150800215041F671320B4B7043DC690B49DA635A68F6
S31508002160884204F4803422F4401203D9012D18BFA2
S3150800217042F480125A600CB10022DA6370BD00BFC7
S315080021800090004000000340005A620208B5FEF7BE
S31508002190B9FDBDE808400021FFF7D0BF70B5440976
S315080021A005460E460ED140F205310F48FFF776FC7C
S315080021B005F01F05AEB104F58053012000FA05F5B8
S315080021C01D6070BD012C08D0022C08D040F20F31DA
S315080021D00548FFF763FC0024EAE7044CE8E7044CEB
S315080021E0E6E704F50053E8E7456700086480004021
S315080021F068800040002130B5B0F5807F85B0044680
S31508002200029100F0F38066D858285CD858285CD824
S31508002210DFE810F071005B005B005B005B005B00B1
S315080022205B005B005B005B005B005B005B005B00C8
S315080022305B005B005B005B005B005B005B005B00B8
S315080022405B005B005B005B005B005B005B005B00A8
S315080022505B005B007100CF005B00CF00E200E2008C
S31508002260E200E200E200CF00E7007A00FE009A00F2
S315080022707A00CF00CF00CF005B005B005B005B00FD
S315080022805B005B005B00FE00CF00CF00CF001601AD
S315080022900301CF005B005B005B005B005B005B003B
S315080022A05B005B005B005B005B005B000801E20013
S315080022B0710071007100AD007A007A00B5000D0159
S315080022C08F00C400C40080286DD040F25A415F4890
S315080022D0FFF7E4FB6AE0B0F5E06F00F09E8038D8BF
S315080022E0B0F5607F6FD01AD8B0F5007F6BD005D8EF
S315080022F0B0F5C07FE9D1FEF7F3FC56E0B0F5207FD4
S3150800230057D0B0F5407FE0D1FEF7EAFC04464FF41B
S315080023102070FFF7D1FEB4FBF0F0400845E0B0F5B9
S31508002320B06F5ED00AD8B0F5806F55D0B0F5A06F03
S31508002330CBD1002102A8FFF70FFD37E0B0F5C06F3B
S3150800234066D0B0F5D06FC0D1002102A8FFF7C4FD52
S315080023502CE0B0F5286F6AD016D8B0F5186F61D0A2
S315080023600AD8B0F5F06F6BD0B0F5106FADD100217B
S3150800237002A8FFF7E1FD19E0B0F5206FA5D100210D
S3150800238002A8FFF74BFD11E0B0F5306F54D09CD38F
S31508002390B0F5386F3CD0B0F5406F96D1002102A851
S315080023A0FFF754FC02E0FEF781FC0290029805B0A4
S315080023B030BDFEF795FC04464FF42070FFF77CFE0F
S315080023C0B4FBF0F0F1E7FEF771FC05462046FFF78F
S315080023D073FEB5FBF0F0E8E7002102A8FFF7FEFB65
S315080023E0E4E7002102A8FFF761FCDFE74FF0E023EE
S315080023F003911B695B0705D5FEF772FC0390039BE7
S315080024000293D3E70DF1070103A8FFF7DDFCF6E712
S31508002410002102A8FFF7D8FCC8E7002102A8FFF7A9
S31508002420BBFDC3E7002102A8FFF7E0FDBEE70021D8
S3150800243002A8FFF72BFDB9E702A8FFF769FCB5E785
S31508002440002102A8FFF7FCFDB0E700BF45670008BA
S31508002450002307B5B0F5807F8DF8023000F0E180E3
S3150800246077D8582868D8382806D8243883B2092B4C
S3150800247048D940F23651C6E039381F28F9D801A3A1
S3150800248053F820F04B26000873240008732400082C
S315080024907324000857260008A1260008732400089C
S315080024A073240008732400087324000873240008A2
S315080024B07324000873240008732400087324000892
S315080024C07324000873240008732400087324000882
S315080024D0AD2600087B25000873240008732400082D
S315080024E073240008C725000873240008732400080D
S315080024F0B9260008C526000895260008EB25000819
S31508002500EB2500080928B4D801A353F820F000BF2A
S315080025107B2500087B2500087B2500087B2500080D
S315080025207B250008732400080F260008732400087A
S315080025304B2600089D25000880289AD1674B1B6FFB
S3150800254003F00703013B032B5BD8DFE803F058547D
S31508002550979FB0F5086F00F0848025D8B0F5C06F56
S3150800256073D010D8B0F5A06F00F09480B0F5B06FB6
S315080025704DD0B0F5806F7FF47CAF00200DF10201DD
S31508002580FFF72CFB48E0B0F5E06F00F08980B0F566
S31508002590F06F60D0B0F5D06F7FF46BAF00200DF10F
S315080025A00201FFF799FC37E0B0F5286F00F08A8042
S315080025B00FD8B0F5186F79D0B0F5206F7CD0B0F58C
S315080025C0106F7FF456AF00200DF10201FFF7B4FC3F
S315080025D022E0B0F5306F7BD0FFF44BAFB0F5386F23
S315080025E033D0B0F5406F7FF444AF00200DF10201FF
S315080025F0FFF72CFB10E005238DF802300CE00223D0
S31508002600FAE740F28C413648FFF748FA04E0002022
S315080026100DF10201FFF74AFB9DF8020003B05DF8D1
S3150800262004FB01934FF0E0231B695B0707D5FEF710
S3150800263057FB0C238DF803309DF80330DCE70DF1CA
S31508002640030101A8FFF7C0FBF6E700200DF1020120
S31508002650FFF7BAFBE0E700200DF10201FFF7F0FCF7
S31508002660DAE71E4BD3F8003103F00303022B07D039
S31508002670032B09D0012B0BD1FEF748FB0323BBE73D
S31508002680FEF7A8FB0923B7E7FEF756FB0823B3E7CF
S315080026900123B1E700200DF10201FFF75DFBBBE75F
S315080026A000200DF10201FFF777FCB5E700200DF1D8
S315080026B00201FFF79BFCAFE700200DF10201FFF7CF
S315080026C0ADFBA9E700200DF10201FFF7DFFBA3E749
S315080026D018460DF10201FFF71BFB9DE7008000403D
S315080026E04567000870B5037804460F2B04D940F6F1
S315080026F021217948FFF7D2F963780F2B04D940F6E0
S3150800270024217548FFF7CAF9A3780F2B04D940F698
S3150800271027217148FFF7C2F9E3780F2B04D940F651
S315080027202A216D48FFF7BAF923790F2B04D940F609
S315080027302D216948FFF7B2F963793F2B04D94FF485
S3150800274023616548FFF7AAF9A3793F2B04D940F618
S3150800275033216148FFF7A2F9E379032B04D940F640
S3150800276036215D48FFF79AF9237A032B04D940F6F8
S3150800277039215948FFF792F9637B032B04D940F6B0
S315080027803C215548FFF78AF98020FFF761FE0328A8
S3150800279000F083804FF48012504B514E5A6645F62E
S315080027A00E034FF0A062C6F880304E4B9A624FF483
S315080027B0803203F580539A62B56D15F48035FBD1E6
S315080027C0637822781B0543EA0263A2794FF44061D5
S315080027D01343E278444843EA0243227943EA023340
S315080027E0627943EA82133361B369E27A03F00043FC
S315080027F01343E27943EA8263227A43EA0263627AFE
S3150800280043EA0243A27A43EA0223B3614FF4006221
S31508002810FFF740FC617B336A002918BF0825227B35
S3150800282023F00F0343EA010343EA82032C4A45EAED
S31508002830030515622D4D31D1A37C916AA07BDB007F
S315080028400D4043EA4013E17B2B4343EA011343F46B
S3150800285080339362264B916D33EA0101FBD14FF029
S315080028608071204881621369A57823F4700343EACE
S31508002870055313614FF000438361237C0BB91D4B4D
S315080028809962637C1BB94FF480321A4B9A62E37CD7
S315080028901BB1134B184AC3F8802070BD022909D111
S315080028A000234FF47F411361144893614FF4085293
S315080028B0FFF7F0FB0A49237C8A6AA07B1B062A409D
S315080028C043EA40131343A27C43EAC203627C43EA09
S315080028D002438B62DBE700BF4567000800900040B3
S315080028E00040004A0050004A3840004AC7FFFEFE32
S315080028F0030001000060004AF1A7FFFF3440004AC8
S31508002900014B93F9000070474411002010B58378F5
S315080029100446072B04D940F69F312A48FFF7BEF82C
S31508002920E378032B04D940F6A1312648FFF7B6F819
S315080029302378032B04D940F6A3312248FFF7AEF8D3
S3150800294094F90130002B04DA40F6A5311D48FFF74B
S31508002950A5F84FF400011C4A637851664FF4D1512B
S31508002960022002F5B832516218494F2B48604FF0E1
S31508002970010028BF4F2301F5805148601169C9033A
S31508002980FCD4217843EA01235361E378A1781B013B
S3150800299043EA012361790B43217943EA41039360B2
S315080029A0E379A1791B0143EA4113617A0B43217A42
S315080029B043EA41035360A37A13B16FF4D1535362C8
S315080029C010BD00BF45670008009000400010024097
S315080029D0014B1880704700BF461100200029CCBF64
S315080029E001210021FFF7AABBB0F5207F10B55FD003
S315080029F00ED8B0F5007F49D003D800B3B0F5C07F34
S31508002A001DD04FF43A71BDE810403148FFF746B87B
S31508002A10B0F5607FF5D14C1E012C06D9042904D0E7
S31508002A2040F2CD212A48FFF739F82A4AD2F88030F1
S31508002A3023F0300343EA0413C2F8803010BD10298E
S31508002A4001F1FF3404D8244B23FA01F1CB0704D44F
S31508002A5040F2A3211E48FFF721F8FFF797FB00F085
S31508002A603DF81C4A136F23F4704343EA0433136793
S31508002A70FEF736F90446FFF7A5F8C0F1020120462D
S31508002A80FFF7ACFFBDE8104000F02EB84C1E1F2C17
S31508002A9004D94FF437710E48FFF700F80D4BD3F8F9
S31508002AA0901021F0F85141EA0461C3F89010C5E787
S31508002AB04C1E012C04D940F2E2210548FEF7EEFF30
S31508002AC0044B196F21F4806141EA84211967B5E73F
S31508002AD045670008008000401601010002214FF4F6
S31508002AE02070FFF781BF000008B54FF4C070FFF7EC
S31508002AF081FBBDE80840044988428CBF02210121B8
S31508002B004FF42070FFF770BF80F0FA02B0F5807FAF
S31508002B1070B50C4600F0528176D8582868D83828FF
S31508002B2006D8243883B2092B48D940F6250167E12F
S31508002B3039381F28F9D801A353F820F0372E000892
S31508002B402B2B00082B2B00082B2B0008632E0008C4
S31508002B50C52F00082B2B00082B2B00082B2B000851
S31508002B602B2B00082B2B00082B2B00082B2B0008DF
S31508002B702B2B00082B2B00082B2B00082B2B0008CF
S31508002B802B2B00082B2B0008F12F0008352C0008EA
S31508002B902B2B00082B2B00082B2B0008A72C000832
S31508002BA02B2B00082B2B00081D3000085D30000871
S31508002BB0532F0008DB2C0008DB2C00080928B4D8A2
S31508002BC001A353F820F000BF352C0008352C000867
S31508002BD0352C0008352C0008352C00082B2B00084E
S31508002BE07D2D00082B2B0008372E00086D2C0008B9
S31508002BF080289AD18B1E062B00F2B580DFE803F0F9
S31508002C00B0A1B3BBB3B37900B0F5086F00F0828109
S31508002C1038D8B0F5C06F00F00E811BD8B0F5A06F9C
S31508002C2000F09781B0F5B06F00F0A880B0F5806F1E
S31508002C307FF47BAF023CE4B2052C00F2B880AB4BC4
S31508002C40195DAB4AD2F8203123F007030B43C2F8CB
S31508002C50203175E0B0F5E06F00F0B481B0F5F06FA3
S31508002C6000F0FF80B0F5D06F7FF45FAF093C052C0C
S31508002C7000F21B81DFE814F00B0120011501190190
S31508002C8019011701B0F5286F00F0E88117D8B0F5DB
S31508002C90186F00F0AD81B0F5206F00F0BF81B0F578
S31508002CA0106F7FF442AF093C052C00F21581DFE86E
S31508002CB014F005011A010F01130113011101B0F5F2
S31508002CC0306F00F0E281FFF430AFB0F5386F00F0F6
S31508002CD0B280B0F5406F7FF428AF023C052C00F2B5
S31508002CE06881DFE814F06201640166016D0166011E
S31508002CF05801002504260121022000F0B3FAFFF747
S31508002D0045FAFFF7EBFE7A4A136F23F007033343BE
S31508002D101367FDF7E5FF0646FEF754FFC0F102010B
S31508002D203046FFF75BFE0121002000F0F3FAFFF7BB
S31508002D30DBFE2DB9032C03D14FF480326D4B9A621A
S31508002D4070BD4FF480126C4B03265A664FF48032DE
S31508002D506A4B9D6A03F58053C5F300659A62CAE714
S31508002D6000250126C7E7002540F277516448FEF79B
S31508002D7095FE2E46BFE700250226BCE7072C12D093
S31508002D800F2C12D0022C05D040F2BC515C48FEF73D
S31508002D9085FE0024564AD2F8803123F003031C43EB
S31508002DA0C2F88041CCE70324F4E70124F2E740F2B5
S31508002DB0F3515348FEF772FE002142E70C2924D04E
S31508002DC01AD8A1F10904022C18D84FF48032484BBE
S31508002DD04C49586E03F580535A664B6A43F0010313
S31508002DE04B62C1035CBF484B5A664FF0E022136939
S31508002DF023F004031361A3E71029E6D040F21B6110
S31508002E00BDE870403E48FEF749BE4FF48032384B65
S31508002E103C49586E03F580535A664B6A23F0010302
S31508002E204B62C3035CBF384B5A664FF0E022136906
S31508002E3043F00403DEE7093CE4B2022C0AD8334B1C
S31508002E40195D2B4AD2F8403123F003030B43C2F82D
S31508002E50403175E740F237612948FEF71FFE002129
S31508002E60EFE7093CE4B2022C0AD8294B195D204A3F
S31508002E70D2F8603123F003030B43C2F860315FE7F1
S31508002E8040F252611E48FEF709FE0021EFE70222D2
S31508002E901749D1F8003223F007031343C1F800326B
S31508002EA04EE70322F4E70422F2E740F2976114485A
S31508002EB0FEF7F4FD0022EBE70122E9E702220C49BE
S31508002EC0D1F8083223F007031343C1F8083237E76D
S31508002ED00322F4E70422F2E740F2B7610848FEF756
S31508002EE0DDFD0022EBE70122E9E700BF7467000871
S31508002EF0008000400060004A009000400040004A00
S31508002F004567000800C0074000A000407A6700082F
S31508002F107A6700084C1E082C12D8DFE804F0161150
S31508002F2018111111110F050002226349D1F8003159
S31508002F3023F003031343C1F8003101E70322F4E742
S31508002F4040F2D3615D48FEF7A9FD0022EDE70122B4
S31508002F50EBE7073C0A2C15D8DFE804F00614121034
S31508002F601414141414141B0002225349D1F82032E5
S31508002F7023F007031343C1F82032E1E60322F4E7FE
S31508002F800422F2E740F234714C48FEF787FD00222E
S31508002F90EBE70122E9E704224749D1F8283123F073
S31508002FA007031343C1F82831CAE60322F4E70222CD
S31508002FB0F2E740F256714148FEF770FD0022EBE752
S31508002FC00122E9E7093CE4B2022C0AD83C4B195D18
S31508002FD0394AD2F8403223F003030B43C2F8403291
S31508002FE0AEE640F28F713548FEF758FD0021EFE74F
S31508002FF0093CE4B2022C0AD8324B195D2E4AD2F8A3
S31508003000503223F003030B43C2F8503298E640F2DD
S31508003010AB712A48FEF742FD0021EFE70F2C17D0C7
S3150800302012D8022C16D0072C16D040F2C5712348A8
S31508003030FEF734FD00222049D1F8603223F0070359
S315080030401343C1F860327BE6102CEED10222F2E778
S315080030500122F0E70322EEE70422ECE7102C10D059
S31508003060142C10D040F2F3711448FEF717FD002215
S315080030701149D1F8703223F003031343C1F87032B3
S315080030805EE60122F4E70222F2E7022910D00729B8
S3150800309010D040F606010948FEF700FD0022064951
S315080030A0D1F8903223F003031343C1F8903247E670
S315080030B00122F4E70222F2E7008000404567000893
S315080030C07A6700087A6700080028ABBF00F16040FD
S315080030D0054B00F5614000F00F00ACBF90F8000307
S315080030E0185C0009704700BF14ED00E0EFF310808C
S315080030F072B6704700B962B67047EFF31180302395
S3150800310083F31188704780F311887047034B58681A
S31508003110C0F30800003818BF0120704700ED00E032
S31508003120EFF31083DB0706D4EFF311802F2894BF43
S3150800313000200120704701207047000038B5C5B24D
S315080031404B2D044604D940F21F310748FEF7A6FC6A
S31508003150064B640953F8240005F01F05E840C043F0
S3150800316000F0010038BD00BF7D67000800E100E0FF
S3150800317000F10C03DBB2572B10B5044604D940F214
S31508003180AD211448FEF78AFCEFF31083DB0702D55E
S315080031900122104610BD2046FFF7D0FF0246002840
S315080031A0F6D12046FFF790FF0146EFF3118313B1DE
S315080031B0B0EB131FECD2084B5B68C3F30803002B74
S315080031C0E7D0103B58B2FFF77FFF88428CBF00223A
S315080031D00122DEE77D67000800ED00E0024A536B36
S315080031E00342FCD1704700BF004009407047704752
S315080031F00A4A10B51369044643F00403136102F042
S3150800320043FCFFF7F3FF30BFFFF7F1FF02F050FC76
S315080032101CB9BDE81040FDF763BD10BD00ED00E028
S31508003220084A10B51369044643F00403136102F013
S315080032302BFC30BF02F03CFC1CB9BDE81040FDF782
S315080032404FBD10BD00ED00E0704770474FF04022BB
S31508003250D36E017923F030030B43D366704770476A
S31508003260704770472DE9F0414FF040230446D3F8E4
S315080032708420D006FBD4D3F88430C3F381139C4250
S315080032803FD0FDF713FD012C05460BD11E4B984286
S3150800329004D940F2F9611D48FEF700FC01212846D1
S315080032A0FFF79CFBFFF722FF4FF00072184B07460B
S315080032B05A662046FFF7D5FF4FF480634FF0402645
S315080032C0621E9340DFF844803367736E9A0103D415
S315080032D0D6F884309B060AD53846FFF70BFF022C32
S315080032E00FD12846BDE8F0410021FFF777BBD6F895
S315080032F084309906E9D540F207714046FEF7CEFBC1
S31508003300E3E7BDE8F08100BF005A6202AD67000836
S315080033100060004007B518B90191FDF7C7FC01998F
S31508003320064B1B7843B1064B984205D8012003B0DB
S315080033305DF804EBFFF796BF0220F8E7852000202A
S31508003340005A62024FF00042144B10B55A664AF60C
S31508003350CD3313494C6C0B6404F0010478B9012091
S31508003360FFF73CFF4B68DB0704D50E4B58600B6B29
S31508003370D807FCD514B10A4B0B4A1A6410BD0B6B5F
S315080033801A07FCD42022074B9A620122A3F5805320
S315080033905A60034A936A9B06FCD5EBE70090004007
S315080033A000400940006009403254FFFF70B54FF0F5
S315080033B040244AF6E853E56EE66E0221236680202D
S315080033C025F0030545F00205FFF7A0FB46F00306C6
S315080033D00020FFF7B7FFFFF742FFFFF741FFE5665B
S315080033E0E666E566E666E566E666E566E666E56673
S315080033F070BD00004FF0004238B5174B01465A66BB
S315080034004AF6CD334FF04022144C656C236443785A
S315080034100B205B0043F00103D363FFF7DFFE63680D
S315080034208A7823F4F87343EA02136360CA784B79FF
S3150800343043EA0223A3600A798B7943EA02232361CC
S315080034400878FFF77FFFEB0748BF054B4FF00100F1
S3150800345048BF236438BD00BF0090004000400940C3
S315080034603254FFFF436D0B42FCD1704708B54368E1
S31508003470DA0714D58368DB0702D50369D90707D5A8
S315080034800A2350218363FFF7EDFF836C9A07FCD16B
S31508003490012200F500535A6043689B07FCD408BD17
S315080034A010B5FFF7E3FF042300F5805100F500523D
S315080034B00B6113610B6113610B6113610B6113617E
S315080034C0202341F2020103610023C3608360416146
S315080034D04FF4A021836141620449C3610362836298
S315080034E0C36243630365D164036310BDFF3F0D03E5
S315080034F038B5194B044698420D460BD0174B9842DF
S3150800350008D003F58043984204D040F25D11144870
S31508003510FEF7C4FA25B92046BDE83840FFF7A6BF2E
S31508003520012204F580535A6040F6FF71204605F0E3
S315080035300F02FFF797FFA2637821FFF793FF05F0C5
S3150800354001036A0748BF43F00203A26C02F00302B4
S315080035509A42FAD138BD00BF0000014B00000A406C
S31508003560DC670008836C5B06FCD541647047000085
S315080035702DE9F04105460C46174622B940F20221CC
S315080035807048FEF78BFA704B9D4200F0CA806F4B6D
S315080035909D4200F0CB8003F580439D4200F0CB802E
S315080035A040F205216748FEF779FA44B965484FF4B1
S315080035B05571FEF773FA2046FEF71CFE0446AB6803
S315080035C0D90744D5BC4204D240F20F215D48FEF724
S315080035D065FA6B6803F00108B4FBF7F35C1EFF2C71
S315080035E004D940F217215748FEF758FAB8F1000FE8
S315080035F02BD028212846FFF735FFAB6C9A071ED13A
S31508003600AB6CDB071DD4AE6C16F002061BD14FF46B
S3150800361009714C48FEF742FA2846FFF727FF2B693F
S3150800362023F07F4343EA04632B61B8F1000F00F0EF
S31508003630878031462846BDE8F041FFF759BF052681
S31508003640EAE70926E8E70626E6E74646E7E76B6877
S31508003650012B04D040F237213A48FEF71FFAA96831
S3150800366001F0E001402946D009D8B9B1202938D05F
S3150800367040F27921BDE8F0413248FEF70FBA6029D9
S3150800368045D08029F4D107EB4703A34204D940F279
S3150800369073212C48FEF702FA012308E0B7EB141F42
S315080036A004D940F25F212748FEF7F8F910237B4337
S315080036B06401B4FBF3F3264E203BB6EBC30F4FEA87
S315080036C0C30404D24FF421711E48FEF7E7F92846D1
S315080036D034400121FFF7C6FE2C63BDE8F041FFF731
S315080036E0C1BEB7EBD40F04D94FF419711548FEF7CC
S315080036F0D5F90823DBE70626B4FBF6F3BB4204D26A
S3150800370040F269210F48FEF7C9F93346CFE7B7EB10
S31508003710940F04D940F26E210A48FEF7BFF9042334
S31508003720C5E7002C7FF44BAF562045E7002C7FF405
S3150800373046AF572040E7002C7FF441AF58203BE7BF
S31508003740BDE8F081DC6700080000014B00000A4074
S31508003750F8FF7F00436870B504460D4616461BB150
S3150800376040F6FF71FFF77EFE2046FFF799FEE989CE
S315080037706B7B62690B43298A22F44C520B4322F075
S315080037800F0213436361A2682B7B297E22F08042D5
S3150800379022F0E2020B4313436A691343A360AB6842
S315080037A01BB9A36843F00043A360EB69002B64D000
S315080037B0A268197A42EA8152A260A268997A42EA14
S315080037C04142A2609A88A16802F4C0420A43A260F4
S315080037D0A268597842EA8102A260A268597B42EA45
S315080037E0C102A260A268997B42EA0112A260A2689D
S315080037F0997842EA8122A260DA799979520242EAF4
S315080038008122E2601A7802F0FD01012908BFE16809
S31508003810A2F1020204BF41F00401E160012A364A1E
S315080038204BD8944245D0354A944244D034498C42C8
S315080038300CBF02214FF0FF31324A49010A440221E6
S3150800384051605A7A04F580518A621AB1E26842F4E4
S315080038500062E260DA7A82B1E268294942F40042FB
S31508003860E260254A1B7B9442274A03F00F0308BFF0
S3150800387053668C42136708BFD36736B196F8203073
S3150800388004F580515BB301230B6205212046FFF73F
S315080038902FFEAA681AB120466968FFF769FE204616
S315080038A02978FFF725FEA36CDB4313F4405FFAD1B2
S315080038B070BD0021C0E70121BEE794420BD00F4A34
S315080038C094420AD00E498C420CBF02214FF0FF31B8
S315080038D00E4A4901B2E70021FAE70121F8E7E26951
S315080038E096F8223096F8210022F009020343134382
S315080038F043F00103CB61C8E70000014B00000A4012
S3150800390000400A40C0D4034000900340C0E403408E
S3150800391038B5284B054698420C463AD08A2126489F
S31508003920FEF7BCF8002C35D09D212348FEF7B6F8E3
S31508003930637B032B03D9A1211F48FEF7AFF8237B2E
S31508003940802B03D0A3211C48FEF7A8F86369B3F1BE
S31508003950804F03D0A5211848FEF7A0F8238A23F440
S3150800396000539BB2B3F5805F03D0A7211248FEF738
S3150800397095F8A368013BB3F5165F03D3A9210E4852
S31508003980FEF78CF821462846BDE838400022FFF7A6
S31508003990E1BE31B98C210848FEF780F8054B9D42F7
S315080039A0C2D15620FEF754FD0938C0B20228BFD945
S315080039B0BAE700BF0000014BDC67000838B5154BB5
S315080039C0044698420D460AD0134B984207D003F591
S315080039D08043984203D070211048FEF75FF81DB95E
S315080039E072210E48FEF75AF82B7B802B03D17621DD
S315080039F00A48FEF753F86B7B032B03D9792107484E
S31508003A00FEF74CF829462046BDE838400022FFF765
S31508003A10A1BE00BF0000014B00000A40DC67000899
S31508003A201F2970B504460D46164603D99121074845
S31508003A30FEF734F836B104F58054012101FA05F58C
S31508003A40256070BD04F50054F7E700BF0E6800084E
S31508003A5038B50D460446B0B1012817D0022817D04C
S31508003A60032803D13F23EB40DB0704D440F22B4164
S31508003A700948FEF713F8302001214443074B01FAA1
S31508003A8005F51D5138BD40F2FF13ECE77F23EAE741
S31508003A9040F2FF33E7E700BF0066000840D0034066
S31508003AA038B50D460446B0B1012817D0022817D0FC
S31508003AB0032803D13F23EB40DB0704D44FF47F717F
S31508003AC00948FDF7EBFF302001214443074B01FA73
S31508003AD005F51D5138BD40F2FF13ECE77F23EAE7F1
S31508003AE040F2FF33E7E700BF0066000840E0034006
S31508003AF070B5054614460E46FFF7F8FA296881EAB6
S31508003B00040202EA06044C402C60BDE87040FFF748
S31508003B10F1BA00002DE9F3470D4614461E468146C4
S31508003B209DF828809DF82C70002843D0012844D0A1
S31508003B30022844D0032803D13F23EB40DB0703D4F4
S31508003B40BF212948FDF7AAFF85EA040333F00303DA
S31508003B5003D0C1212448FDF7A1FF072C4FF003012C
S31508003B6005F003052ED84FEA840A01FA0AF11F4820
S31508003B7009FA0AF20191FFF7BBFF01991C4805FAF9
S31508003B800AF2FFF7B5FF324621461A48FFF748FF03
S31508003B90424621461848FFF743FF0123174AA34028
S31508003BA0C2F8203421463A46154802B0BDE8F04727
S31508003BB0FFF736BF40F2FF13BFE77F23BDE740F2AA
S31508003BC0FF33BAE7A4F1080A4FEA8A0A01FA0AF1AA
S31508003BD00C4809FA0AF20191FFF78AFF01990A4887
S31508003BE005FA0AF2CDE700BF7368000800C403406F
S31508003BF008C4034010C4034014C4034000E0034053
S31508003C0024C4034004C403400CC403402DE9F04116
S31508003C100D4617469846044698B3012834D002281C
S31508003C2034D0032803D13F23EB40DB0704D44FF4F9
S31508003C30B0711C48FDF732FF37B129462046B8F166
S31508003C40000F26D0FFF704FF30260F216643072D05
S31508003C5088BFA5F10803144895BFAB009B0004363E
S31508003C600C3607FA03F299403044FFF741FFBFB913
S31508003C7029462046B8F1000F0ED0BDE8F041FFF7FF
S31508003C80E7BE40F2FF13CFE77F23CDE740F2FF33CD
S31508003C90CAE7FFF705FFD7E7BDE8F041FFF700BF22
S31508003CA0BDE8F0817368000830C00340072838B5BE
S31508003CB004460D4603DD77210948FDF7EFFE1F2C64
S31508003CC003D991210748FDF7E9FE074B074A01206A
S31508003CD0002D18BF134600FA04F41C6038BD00BF57
S31508003CE0A36800080E6800084010044040200440FD
S31508003CF010B5044618B991211F48FDF7CFFE237861
S31508003D001B0613F0604F03D092211B48FDF7C6FE31
S31508003D10E3780F2B03D9A3211748FDF7BFFE01212E
S31508003D202020FEF73BFA01212120FEF737FA01226F
S31508003D30124B5A60227812069A606178A27842EA93
S31508003D4001429A61FF229A6200229A631A644FF02E
S31508003D5000425A654FF0FF324FF4800103F50053D5
S31508003D601A65074AC2F88011E3781B01DBB282F8AC
S31508003D701633116010BD00BFA36800080000044098
S31508003D8000E100E083695B06FCD5C163704700006B
S31508003D902DE9F0470646DDE90884154699468A4620
S31508003DA0334F39B9082323704FF4D963A360314BD5
S31508003DB06760E36055B16B1E2B4207D0082323705A
S31508003DC040F2CB63A3602B4B6760E360FFF795F97E
S31508003DD0002D08BF04254D4538BF4D46D6F808E0E6
S31508003DE06B1E13EA0E0FC5F1000208BF002502EA92
S31508003DF00E02154409F1FF33AA4413EA0A0FC9F162
S31508003E00000208BF4FF0000902EA0A0202EB0903A2
S31508003E10726884460132A2EB0E01A3EB0E0E7145C1
S31508003E2015491AD2B8F1000F02D09B1AC8F800300B
S31508003E30162540F222732570C4E902316046676090
S31508003E40FFF761F940F2D76325700025A360094B97
S31508003E506760E3602846BDE8F087B36000232370F7
S31508003E604FF4E5636760C4E90231FFF74CF9F1E7FF
S31508003E70D36800082E6900081669000830B50C4694
S31508003E801D46114685B01BB9039200F012F8039936
S31508003E9000230648009304220123002C18BF20465D
S31508003EA00195FFF775FF05B030BD00BF481100202A
S31508003EB07047FEE71FB50C4B1B78012B0AD1FFF79D
S31508003EC025F9002814BF6FF005004FF0FF3005B044
S31508003ED05DF804FB684600F0A3F99DF80000003879
S31508003EE018BF01204042F2E7B84600201FB5FFF789
S31508003EF00DF948B9074B1B78012B02D0684600F02C
S31508003F00D3F84FF0FF3001E06FF0050005B05DF81B
S31508003F1004FB00BFB8460020704700002DE9F041B9
S31508003F20184B1F7867BBFFF7E8F8174D044695F856
S31508003F30008000F02DFE4028144E287012D0144A36
S31508003F40B8F1400F52F83030336001D1FCF72DFA42
S31508003F50104B32681B689A4208D12046BDE8F041EA
S31508003F60FFF7D1B83760FCF71FFA02E02B78402B31
S31508003F70F9D001F02AF92046FFF7C5F8BFF36F8F8D
S31508003F80BDE8F081B9460020B6440020C0460020AE
S31508003F90B8440020BC460020F8B5044608B9FFF727
S31508003FA088FFFFF7B3F8164E164D30B1202323705D
S31508003FB040F22133C4E902356660134B1B78012BA6
S31508003FC007D00223237040F225336660C4E9023520
S31508003FD0F8BD0E4F3B78F92B05D91E236660237072
S31508003FE040F22A33F2E7FFF788F83B7801333B7053
S31508003FF0FFF789F800236660237040F23533E5E75A
S3150800400048690008B0690008B8460020B94600208B
S315080040102DE9F041044608B9FFF74BFFFFF776F89C
S315080040201D4F1E4E30B12023237040F24D33C4E994
S31508004030023667601A4B1B78012B08D002232370BF
S3150800404040F251336760C4E90236BDE8F081DFF813
S31508004050548098F800302BB91F236760237040F20C
S315080040605633F0E7FFF749F898F80050013DEDB2EE
S3150800407088F800503DB1FFF746F82D236760237096
S3150800408040F25E33DFE7FFF73EF8FFF747FF4FF4EE
S315080040905A7325706760D6E748690008A269000860
S315080040A0B8460020B946002038B5044608B9FFF7D7
S315080040B000FF234B1B78012B08D013232370214BB9
S315080040C0636040F2FE33A3601F4BE3601F4B1B88FF
S315080040D043B9092323701B4B636040F20943A3606D
S315080040E0194BE3601A4D2B7843B11F232370154BE8
S315080040F0636040F20C43A360134BE360FFF710F8CC
S3150800410040B11F2323700F4B636040F20F43A36037
S315080041100D4BE36000F03CFD0E4B0F4A18700F4B39
S3150800412018700F4B53F8303013600E4A1360012392
S315080041302B7001F003F8BDE83840FFF7BABE00BFA0
S31508004140B4440020486900089A690008C44600205B
S31508004150B8460020B6440020C0460020B5440020DA
S31508004160B8440020BC4600200023C0E9003370474D
S31508004170036810B523B9C1E906330160416019E047
S3150800418091F8272093F8274094420CD89B69002B76
S31508004190F8D18B614368CB619961EFE7C1E90632D3
S315080041A09161D96106E0DA69002AF7D1C1E90632D8
S315080041B0D961016010BD016A41B14B689B6933B989
S315080041C0C1E901330023C0E9063303627047D0E929
S315080041D0063212B9DA614B60F4E793610BB98A606B
S315080041E0F0E7DA61EEE738B5056A6B689B6943B1B3
S315080041F0FFF7E1FF05620146281DBDE83840FFF7D5
S31508004200B7BF38BD00231946044A0133402BC2E91B
S31508004210001102F10802F8D1704700BFB844002027
S3150800422070B5044608B9FFF744FE434D6A68D2B133
S315080042302B68424E4BB92346296B41489200FFF73B
S315080042401DFE306023780BB170BD336032683D4B7C
S315080042503D491A606B683D4A13603D4A9B001360EE
S315080042600A6813440B606B6B3A4E336000F0FCFE31
S3150800427001F04EFD054648B101232370364B6360B5
S315080042804FF4DA73A360354BE360DDE701F018FEFF
S315080042903668334BB0420246186041D20923237070
S315080042A02D4B63604FF4DD73A3602C4BE360002352
S315080042B00020012101F084FF70432A4BB6F57A7F6E
S315080042C0186008D9324600230020012101F078FF42
S315080042D04FF47A754543244B244A1D600023137016
S315080042E0234A1370234A1360234A1360234A137020
S315080042F0234A1370154A1268AAB90022214B1A706C
S3150800430000F03EFC2046FFF77DFF00F07FFC237897
S31508004310002B99D1FFF700FE01221B4B1A7093E779
S31508004320C5D12846C9E7074909680029E5D0013AF1
S3150800433041F8043BFBD1E0E75C1100208C440020E7
S31508004340876900089044002088440020944400208F
S31508004350984400209C44002048690008BC6900086D
S31508004360A8440020A4440020A0440020B846002009
S31508004370B9460020BC460020C0460020B5440020AF
S31508004380B6440020C6460020B444002090F8271002
S31508004390094B10B553F83120C26032B9026143F8AF
S315080043A0310003EBC103586010BD0024046110619D
S315080043B043F83100F8E700BFB844002090F82720FA
S315080043C0094B10B553F83210D40031B9C0E90311BE
S315080043D043F832002344586010BD00222344C260CB
S315080043E05A680261D060F6E7B844002010B5044662
S315080043F090F8270000F0DCFB074B94F827201B7881
S3150800440020469A4203D1BDE81040FFF7D7BFBDE862
S315080044101040FFF7BBBF00BFB544002091F8263017
S3150800442010B5072B0C4607D8023B052B06D8DFE844
S3150800443003F0060605051D1DFF2B2AD110BD10B178
S315080044400846FFF7B8FE94F82630032B06D104F188
S31508004450440001F097FC08B1FFF72BFD2046FFF753
S31508004460C5FF0023A38484F82630E7E710B1084681
S31508004470FFF7A1FE94F82630072B06D104F1440075
S3150800448001F080FC08B1FFF714FD0023A384042380
S31508004490E9E7BDE81040FFF70CBD70B50C46FEF71E
S315080044A02CFE94F826300646013B062B36D8DFE864
S315080044B003F0403504354735040094F82430204687
S315080044C0042B0ABF236A00251D69FFF774FE94F8BA
S315080044D02630032B29D1FFF789FF002384F82630DD
S315080044E04FF44073A384CDB195F8273095F828206A
S315080044F09A4213D094F827209A420FD1284600F002
S315080045000FFB95F82830834228BF0346D9B295F8A1
S3150800451027308B4202D0284600F064FC3046FEF76E
S31508004520F2FDBDE87040FFF7F9BC072BD8D104238C
S31508004530D4E70023204684F82630FFF757FFEDE737
S31508004540042384F82630E9E710B5044690F82700D6
S31508004550D4E9033282B90D4953B941F8303001EB39
S31508004560C0014B6000F03AFB0023C4E9033310BDD9
S315080045701A6141F83030F7E7D36023B9034B03EBF0
S31508004580C0004260F0E71A61EEE700BFB8440020B9
S31508004590F7B504460D4611B3002601F091FC114B00
S315080045A01A683346571E46F1FF31E5FB0071384657
S315080045B001F006FE23460146CDE900660A4A04F1E3
S315080045C0440001F023FC08B1FFF773FC03232046DF
S315080045D084F8263003B0BDE8F040FFF7B5BF0223E4
S315080045E0F5E700BF9C4400209B44000838B500232B
S315080045F004460A4D286880F8241080F825301146AC
S31508004600FFF7C6FF34B12968201D0C62BDE83840A3
S31508004610FFF7AEBD2B681C6238BD00BFBC46002044
S315080046202DE9F843054691461C460BB9FFF741FCB0
S31508004630FEF76CFD144F154E28B120232370552321
S31508004640C4E9023667602DB90A2323705823C4E9E2
S3150800465002366760FEF751FD804610220021284683
S3150800466001F076FF0A4B281D2B60C5F80C90FFF762
S315080046707BFD4046FEF747FD0023237070236760E5
S31508004680C4E90236BDE8F883C3690008186A000859
S31508004690464C414710B4064C2468A4F874200022FE
S315080046A0E166226701211A465DF8044BFFF79EBFB3
S315080046B0BC4600202DE9F74F0D9C05468B4617464C
S315080046C09A460CB9FFF7F5FB0FFA8AF3002B00930D
S315080046D017DBFEF71BFD40B1202323709A4B63605E
S315080046E040F23513A360994BE360FEF719FD40B11C
S315080046F01F232370944B636040F23913A360934BD6
S31508004700E360934B1B78012B0BD0022323708E4B4F
S3150800471063604FF49F73A3608C4BE3604FF000080F
S315080047205EE045B90A232370874B636040F2431362
S31508004730A360864BE36047F6FF630AEA0303581E45
S3150800474001280CD9042B0AD0082B08D0082323707B
S315080047507D4B63604FF4A373A3607C4BE3602868CA
S315080047607C4B984208D00C232370774B63604FF438
S31508004770AC73A360754BE3600AF4807301930C9BDA
S3150800478013B100230C9A1360FEF7B7FC0AF00F0961
S31508004790B9F1040F064607D0B9F1080F3DD0FEF768
S315080047A0B2FCFFF786FB71E0EA683BEA020302EA1D
S315080047B00B0819D1019B13B122EA0802EA60664A7E
S315080047C012680AB1C2F870803046FEF79CFC0022D7
S315080047D022705D4A62604FF4BB72A2605B4AE26077
S315080047E0404603B0BDE8F08F009B002B08DAFEF7C1
S315080047F08AFC1D232370544B636040F27D138AE7BD
S31508004800564B1B78002B38D0FEF77DFC2D232370E2
S315080048104D4B63604FF4C2737DE7EA6812EA0B08F2
S3150800482013D0019B13B122EA0802EA604A4A1268C9
S315080048300AB1C2F870803046FEF765FC0022227085
S31508004840414A62604FF4D172C7E7009B002B08DA31
S31508004850FEF759FC1D2222703B4A626040F2A912FB
S31508004860BBE73E4B1B7843B1FEF74DFC2D22227069
S31508004870354A62604FF4D872AFE728463B4652463F
S315080048805946FFF707FF3046FEF73DFC324EFFF765
S3150800489045FBFEF732FC336893F825200023032AEC
S315080048A041D8DFE802F00222372B2370264B6360DB
S315080048B040F22D23A360254BE3603368D3F870805C
S315080048C0019B4BB1B9F1040F02D0B9F1080F34D1ED
S315080048D0EA6822EA0802EA60FEF715FC002222705E
S315080048E0194A626040F26F2277E7FEF70CFC212333
S315080048F02370154B63604FF40E730CE70C9A02B1E4
S315080049001360FEF700FC222323700F4B636040F20E
S31508004910412300E7FEF7F7FB312323700A4B636058
S315080049204FF41373F7E60090FEF7EDFBFFF7C1FAB5
S3150800493023780098002BC0D0F0E60090FEF7E3FB42
S31508004940FFF7B7FA0098C7E7C36900080D6A0008B9
S31508004950B8460020464C4147BC460020B9460020D0
S31508004960002310B5838490F8263004460167072B88
S315080049701AD8DFE803F01212040412121717032BD1
S3150800498005D1443001F0FEF908B1FFF792FA204646
S31508004990FFF72CFD002384F826302046BDE810409A
S315080049A0FFF709BC0423F6E7FFF783FAF5E70000EB
S315080049B02DE9F0410546884616461C460BB9FFF711
S315080049C078FA4D4B1B78012B0CD0022323704B4BE6
S315080049D00025636040F23233A360494BE360284602
S315080049E0BDE8F08145B90A232370444B636040F261
S315080049F03733A360424BE36047F6FE731E4208D086
S31508004A00082323703D4B636040F23A33A3603C4B66
S31508004A10E3602A683B4B9A4208D00C232370374B35
S31508004A2063604FF45073A360354BE360FEF765FB94
S31508004A30B6F5004F07460DD008D85EB1012E20D036
S31508004A403846FEF760FBFFF734FA07E048F2010341
S31508004A509E42F4E7E96841EA0801E960D5F804806E
S31508004A60B8F1000F11D13846FEF74DFB234B84F8F9
S31508004A700080636040F26233A360214BED68E36017
S31508004A80ADE7E96821EA0801E7E74046B0F874307F
S31508004A90D8F8188003F00F03042B07D0082B0ED084
S31508004AA03846FEF730FBFFF704FA0CE0C16EEB68F8
S31508004AB031EA030307D10022FFF752FF03E0E96852
S31508004AC0C36E1940F7D1B8F1000FDED13846FEF7AC
S31508004AD01AFB330401D4FFF721FAFEF70EFBED6843
S31508004AE0FEF711FB00232370044B636040F2A333E7
S31508004AF0A360034BE36072E7B8460020C369000869
S31508004B00026A0008464C4147C36A00F12C028B42F0
S31508004B10D86801D11060704703F10C020346F6E726
S31508004B20C36A3F2003B970475A6822B192F8272012
S31508004B30904228BF1046DB68F4E72DE9F3410546A5
S31508004B4001260027C46A14B902B0BDE8F0812146DF
S31508004B502846D4F80C80FFF7D7FF616819B9217584
S31508004B6021614446EFE72675CB6A2561E360002399
S31508004B70CC621A4620460097FFF750FCF1E7000082
S31508004B800022024BC3E90022704700BFAC44002054
S31508004B9008B5064B186828B9586800F0C3FA2030DB
S31508004BA0C0B208BD00F0BEFAFAE700BFAC44002068
S31508004BB01F28094A07D84FF0004323FA00F0136864
S31508004BC00343136070470123C0F13F0003FA00F066
S31508004BD05368184350607047AC4400201F280A4B9E
S31508004BE008D84FF0004222FA00F01A6822EA0002BA
S31508004BF01A6070470122C0F13F0002FA00F05A68B5
S31508004C0022EA00025A607047AC4400200023054A95
S31508004C1013800370044B436040F61F038360034B05
S31508004C20C3607047C4460020256A0008646A000805
S31508004C3010B584220021044601F08AFC402384F83A
S31508004C40273084F8283010BD2DE9F04F2DED028B62
S31508004C5087B008EE103A9DF848301A9C0393DDE9B0
S31508004C6013830493189B05469346DDF85490BDF8C4
S31508004C7064A005930CB9FFF71CF9FEF747FA544FE1
S31508004C80544E28B120232370F023C4E90236676006
S31508004C902DB90A232370F323C4E902366760BBF1F2
S31508004CA0000F05D10A232370F623C4E9023667608C
S31508004CB0B8F1000F05D10A232370F923C4E9023697
S31508004CC06760454B1B684B4505D908232370FC23B1
S31508004CD0C4E902366760049B994505D80823237002
S31508004CE0FF23C4E902366760039B3F2B06D90823D6
S31508004CF023704FF48173C4E9023667602846FFF7CC
S31508004D0097FF002340F20B121AF0030FC4E902269C
S31508004D102370676048D1049B584623F00703424630
S31508004D2018EE101ACDE9009A08EB830300F0BEF9D5
S31508004D308045834608D9322323704FF494736760FD
S31508004D40C4E90236FFF7B5F8039B284685F82730ED
S31508004D5085F82830059BC5F800B06B600023C5F8B8
S31508004D601480C5E91833AB66C5F83090A5F834A0A9
S31508004D7000F098F9FEF7C1F9044695F82700FFF701
S31508004D8017FF2846FFF71AFB144A204613880133F3
S31508004D901380134B1B78012B11D007B0BDEC028B87
S31508004DA0BDE8F04FFEF7AFB91AF0020FB3D01A46B6
S31508004DB002E048F8232001334B45FAD1ABE7FEF76A
S31508004DC0A2F907B0BDEC028BBDE8F04FFFF7A6B815
S31508004DD0256A00087A6A000844690008C446002063
S31508004DE0B846002070B504460D4694F82630072BC1
S31508004DF008D8013B062B0BD8DFE803F01F22221F39
S31508004E001F222200FF2B1AD0BDE87040FFF751B8C9
S31508004E102046FFF799FB284684F82750FFF7C8FE77
S31508004E20264B20461B68A34203D1BDE87040FFF716
S31508004E30ADBABDE87040FFF7C1BA84F8275070BD17
S31508004E4094F8243094F82760013B84F82750072B00
S31508004E50DAD801A252F823F0794E00083F4E00082E
S31508004E60094E0008834E0008794E0008794E00085E
S31508004E703F4E0008794E00082046BDE87040FFF70F
S31508004E80B2B92046FFF7AFF9236AB5421C6994F810
S31508004E90273002D2AB42A8D8D1E7B342A5D12046E3
S31508004EA0FFF73EFE94F82830984228BF184694F833
S31508004EB02730C5B2AB4298D1C1E700BFBC46002037
S31508004EC02DE9F04104460D4609B9FEF7F2FFFEF753
S31508004ED01DF940B120232B70544B6B604FF4DA73E5
S31508004EE0AB60534BEB60534B1B78012B0AD0022364
S31508004EF02B704E4B6B604FF4DC73AB604C4BEB6026
S31508004F00BDE8F0812CB9FEF7F8F84B4B1C68FEF7A4
S31508004F10FAF8FEF7F2F894F826308046072B08D8F8
S31508004F20013B062B0DD8DFE803F04531310F45313B
S31508004F303100FF2B70D0FEF7E6F8BDE8F041FEF72A
S31508004F40B8BF2046FFF700FBE36A13B12046FFF718
S31508004F50F4FD204600F0A7F8384A20461388013B9E
S31508004F601380FFF765FEFF23404684F82630FEF7D8
S31508004F70CAF800232B702D4B6B6040F23123AB60CF
S31508004F802B4BEB60BDE8F041FEF7C8BF94F8243020
S31508004F90082B3ED8DFE803F00805083D1705050885
S31508004FA005002046FFF707F994F8263003F0FB03BF
S31508004FB0032BC9D104F1440000F0E4FE0028C3D055
S31508004FC0FEF777FFC0E7236A20461E6996F8277022
S31508004FD0FFF7F1F896F8273096F828209A420CD071
S31508004FE094F827209A4208D13046FFF799FD96F89B
S31508004FF02810814228BF0146CFB2002384F8243006
S3150800500096F82730BB42CFD039463046FFF7EAFE3E
S31508005010CAE7FEF74EFFC7E7FEF775F81F232B70A2
S31508005020024B6B6040F2072367E700BF256A00085A
S31508005030706A0008B8460020BC460020C446002016
S315080050401FB5054B186800F02FF869460020FFF7D2
S3150800505037FF05B05DF804FBBC46002008B5FBF732
S31508005060A1F900BFFDE700000B4B1A680B4B02F1D4
S3150800507080421B68013A03EB8203094A23F00703BF
S3150800508013604FF0E023D3F8343F03F04043B3F105
S31508005090404F00D0FEE7704794440020904400201B
S315080050A0C8460020704770477047000010B5029C3C
S315080050B06FF0020C02EB84024FF0807422F00702B4
S315080050C042E9020415484FF0123442F80C0C4FF02E
S315080050D0033042E905044FF0023042E907304FF049
S315080050E0113342F8201C42E90A3C4FF010314FF0C8
S315080050F009334FF0083042E90C314FF007334FF0CF
S31508005100063442E90E304FF00533104642E91034B2
S315080051104FF0043340F8443D10BD00BF415000082D
S3150800512070470000B0FA80F0704790FAA0F0B0FA25
S3150800513080F0704790FAA0F0704700BF72B64EF63E
S315080051402250CEF2000040F2FF01C0F200010170C9
S31508005150002080F3098844F2C860C2F200000168A2
S3150800516081F30888FFF7DCFF44F2B540C2F200007D
S3150800517044F2B641C2F200010A78027044F2BC60F9
S31508005180C2F2000044F2C061C2F200010A6802607D
S31508005190002080F30B88106880F3098802F1080262
S315080051A0116881F30B88EFF3148040F0020020F0B9
S315080051B0040080F31488BFF36F8FBDE8F04F0FBC6F
S315080051C0BDE8005006BC62B608473A484FF0805121
S315080051D00160704737484FF08051016070473020B2
S315080051E080F3118844F2BC62C2F2000211680029F9
S315080051F001BF314A136823F0010313600ED0EFF3A1
S3150800520009801EF0100F08BF20ED108A20E9F04F24
S3150800521044F2BC65C2F20005296808607446FFF7C7
S315080052207FFF44F2BC61C2F2000144F2C060C2F2E0
S31508005230000003680B6044F2B542C2F2000244F271
S31508005240B641C2F200010878107044F0040E00203E
S3150800525080F30B88002B0DD01868B0E8F04F1EF0CD
S31508005260100F08BFB0EC108A80F30988996881F39B
S315080052700B881BE044F2C861C2F200010868A0F17D
S315080052801C0080F3088840F20001C0F20011C161D9
S3150800529045F25D01C0F60001816145F24101C0F6A3
S315080052A0000141614FF6F97ECFF6FF7E002080F3BC
S315080052B01188704704ED00E034EF00E0054B9A686A
S315080052C09107FCD45A689207F9D4DA69002AF6D10C
S315080052D0704700BF00800A4008B5FFF7EFFF0122BC
S315080052E0024B03F580514A601A6108BD00800A40E6
S315080052F0074B5A68012A0AD15A68D20702D5DA69D1
S31508005300002AF9D102221A610122024B5A6070471B
S3150800531000800A4000A00A4010B5064CFFF7CEFFF1
S315080053206368012B03D1FFF7E3FFFFF7C7FF037895
S31508005330E36010BD00800A4018B171211048FCF7DF
S31508005340ADBB4A680B7812B1127843EAC2034A78B1
S31508005350002A14BF0222002213438A6812B1127867
S3150800536043EA82138A78002A14BF042200221343D0
S31508005370CA6812B1127843EA4223024A9364704714
S31508005380876A000800800A4020B14FF482710348FA
S31508005390FCF784BB024B5964704700BF876A000854
S315080053A000900A4020B14FF4A0710348FCF776BB81
S315080053B0024B5964704700BF876A000800A00A407C
S315080053C020B14FF4BE710348FCF768BB024B196461
S315080053D0704700BF876A000800A00A4008B530B1C8
S315080053E0044840F2B711FCF759FB002008BD024BF0
S315080053F0186CFBE7876A000800800A4008B548B1C0
S31508005400084840F26621FCF749FB002008BD064B18
S31508005410D86CFBE70029FAD00129F7D1024B186DA1
S31508005420F4E700BF876A000800800A4050B14FF4CD
S3150800543041710748FCF732BB064BDA647047054BE7
S315080054401A6570470029F7D00129F8D0704700BFC0
S31508005450876A000800800A4007B5084B18689A88CA
S315080054609B7900906846ADF804208DF80630FDF764
S31508005470C1FF002003B05DF804FB00BFC66A000840
S315080054804FF0402213B50024536F684643F00103DA
S31508005490536700948DF80440FDF7D8FE204602B005
S315080054A010BD000070B586B001AA1546174B03F16A
S315080054B01006144618685968083303C4B3422246CE
S315080054C0F7D11868124B2060D3F84C21120314D474
S315080054D0D3F85041E4B28DF80E40FDF711FA204496
S315080054E080F308008DF80D000A48FBF715FC2846DE
S315080054F0FDF7F8F8002006B070BD074B1C884FF67C
